{
  "contractName": "Core",
  "abi": [
    {
      "anonymous": false,
      "inputs": [
        {
          "indexed": true,
          "internalType": "address",
          "name": "owner",
          "type": "address"
        },
        {
          "indexed": true,
          "internalType": "address",
          "name": "spender",
          "type": "address"
        },
        {
          "indexed": false,
          "internalType": "uint256",
          "name": "value",
          "type": "uint256"
        },
        {
          "indexed": false,
          "internalType": "uint256",
          "name": "purchaseId",
          "type": "uint256"
        }
      ],
      "name": "Approval",
      "type": "event"
    },
    {
      "anonymous": false,
      "inputs": [
        {
          "indexed": false,
          "internalType": "uint256",
          "name": "optionId",
          "type": "uint256"
        },
        {
          "indexed": false,
          "internalType": "uint256",
          "name": "excersizeCost",
          "type": "uint256"
        },
        {
          "indexed": false,
          "internalType": "uint256",
          "name": "timestamp",
          "type": "uint256"
        }
      ],
      "name": "OptionExcersize",
      "type": "event"
    },
    {
      "anonymous": false,
      "inputs": [
        {
          "indexed": false,
          "internalType": "address",
          "name": "seller",
          "type": "address"
        },
        {
          "indexed": false,
          "internalType": "address",
          "name": "token",
          "type": "address"
        },
        {
          "indexed": false,
          "internalType": "bool",
          "name": "isCallOption",
          "type": "bool"
        },
        {
          "indexed": false,
          "internalType": "uint256",
          "name": "strikePrice",
          "type": "uint256"
        },
        {
          "indexed": false,
          "internalType": "uint256",
          "name": "premium",
          "type": "uint256"
        },
        {
          "indexed": false,
          "internalType": "uint256",
          "name": "expiry",
          "type": "uint256"
        },
        {
          "indexed": false,
          "internalType": "uint256",
          "name": "amountSelling",
          "type": "uint256"
        },
        {
          "indexed": false,
          "internalType": "uint256",
          "name": "orderId",
          "type": "uint256"
        }
      ],
      "name": "OptionOffer",
      "type": "event"
    },
    {
      "anonymous": false,
      "inputs": [
        {
          "indexed": false,
          "internalType": "address",
          "name": "buyer",
          "type": "address"
        },
        {
          "indexed": false,
          "internalType": "address",
          "name": "seller",
          "type": "address"
        },
        {
          "indexed": false,
          "internalType": "address",
          "name": "token",
          "type": "address"
        },
        {
          "indexed": false,
          "internalType": "bool",
          "name": "isCallOption",
          "type": "bool"
        },
        {
          "indexed": false,
          "internalType": "uint256",
          "name": "strikePrice",
          "type": "uint256"
        },
        {
          "indexed": false,
          "internalType": "uint256",
          "name": "premium",
          "type": "uint256"
        },
        {
          "indexed": false,
          "internalType": "uint256",
          "name": "expiry",
          "type": "uint256"
        },
        {
          "indexed": false,
          "internalType": "uint256",
          "name": "amountPurchasing",
          "type": "uint256"
        },
        {
          "indexed": false,
          "internalType": "uint256",
          "name": "purchaseId",
          "type": "uint256"
        }
      ],
      "name": "OptionPurchase",
      "type": "event"
    },
    {
      "anonymous": false,
      "inputs": [
        {
          "indexed": true,
          "internalType": "address",
          "name": "from",
          "type": "address"
        },
        {
          "indexed": true,
          "internalType": "address",
          "name": "to",
          "type": "address"
        },
        {
          "indexed": false,
          "internalType": "uint256",
          "name": "value",
          "type": "uint256"
        },
        {
          "indexed": false,
          "internalType": "uint256",
          "name": "purchaseId",
          "type": "uint256"
        },
        {
          "indexed": false,
          "internalType": "uint256",
          "name": "timestamp",
          "type": "uint256"
        }
      ],
      "name": "Transfer",
      "type": "event"
    },
    {
      "stateMutability": "payable",
      "type": "fallback",
      "payable": true
    },
    {
      "inputs": [],
      "name": "daiTokenAddress",
      "outputs": [
        {
          "internalType": "address",
          "name": "",
          "type": "address"
        }
      ],
      "stateMutability": "view",
      "type": "function",
      "constant": true
    },
    {
      "inputs": [],
      "name": "lastOrderId",
      "outputs": [
        {
          "internalType": "uint256",
          "name": "",
          "type": "uint256"
        }
      ],
      "stateMutability": "view",
      "type": "function",
      "constant": true
    },
    {
      "inputs": [],
      "name": "lastPurchaseId",
      "outputs": [
        {
          "internalType": "uint256",
          "name": "",
          "type": "uint256"
        }
      ],
      "stateMutability": "view",
      "type": "function",
      "constant": true
    },
    {
      "inputs": [
        {
          "internalType": "uint256",
          "name": "",
          "type": "uint256"
        }
      ],
      "name": "optionOffers",
      "outputs": [
        {
          "internalType": "address",
          "name": "seller",
          "type": "address"
        },
        {
          "internalType": "address",
          "name": "token",
          "type": "address"
        },
        {
          "internalType": "bool",
          "name": "isCallOption",
          "type": "bool"
        },
        {
          "internalType": "uint256",
          "name": "strikePrice",
          "type": "uint256"
        },
        {
          "internalType": "uint256",
          "name": "premium",
          "type": "uint256"
        },
        {
          "internalType": "uint256",
          "name": "expiry",
          "type": "uint256"
        },
        {
          "internalType": "uint256",
          "name": "amountUnderlyingToken",
          "type": "uint256"
        },
        {
          "internalType": "uint256",
          "name": "offeredTimestamp",
          "type": "uint256"
        },
        {
          "internalType": "bool",
          "name": "isStillValid",
          "type": "bool"
        }
      ],
      "stateMutability": "view",
      "type": "function",
      "constant": true
    },
    {
      "inputs": [
        {
          "internalType": "uint256",
          "name": "",
          "type": "uint256"
        }
      ],
      "name": "optionPurchases",
      "outputs": [
        {
          "internalType": "address",
          "name": "buyer",
          "type": "address"
        },
        {
          "internalType": "address",
          "name": "seller",
          "type": "address"
        },
        {
          "internalType": "address",
          "name": "token",
          "type": "address"
        },
        {
          "internalType": "bool",
          "name": "isCallOption",
          "type": "bool"
        },
        {
          "internalType": "uint256",
          "name": "strikePrice",
          "type": "uint256"
        },
        {
          "internalType": "uint256",
          "name": "premium",
          "type": "uint256"
        },
        {
          "internalType": "uint256",
          "name": "expiry",
          "type": "uint256"
        },
        {
          "internalType": "uint256",
          "name": "amountUnderlyingToken",
          "type": "uint256"
        },
        {
          "internalType": "uint256",
          "name": "offerId",
          "type": "uint256"
        },
        {
          "internalType": "uint256",
          "name": "purchasedTimestamp",
          "type": "uint256"
        },
        {
          "internalType": "bool",
          "name": "exercized",
          "type": "bool"
        }
      ],
      "stateMutability": "view",
      "type": "function",
      "constant": true
    },
    {
      "inputs": [
        {
          "internalType": "address",
          "name": "",
          "type": "address"
        },
        {
          "internalType": "address",
          "name": "",
          "type": "address"
        },
        {
          "internalType": "bool",
          "name": "",
          "type": "bool"
        },
        {
          "internalType": "uint256",
          "name": "",
          "type": "uint256"
        },
        {
          "internalType": "uint256",
          "name": "",
          "type": "uint256"
        },
        {
          "internalType": "uint256",
          "name": "",
          "type": "uint256"
        }
      ],
      "name": "orderbook",
      "outputs": [
        {
          "internalType": "uint256",
          "name": "",
          "type": "uint256"
        }
      ],
      "stateMutability": "view",
      "type": "function",
      "constant": true
    },
    {
      "inputs": [
        {
          "internalType": "address",
          "name": "",
          "type": "address"
        },
        {
          "internalType": "address",
          "name": "",
          "type": "address"
        },
        {
          "internalType": "bool",
          "name": "",
          "type": "bool"
        },
        {
          "internalType": "uint256",
          "name": "",
          "type": "uint256"
        },
        {
          "internalType": "uint256",
          "name": "",
          "type": "uint256"
        }
      ],
      "name": "positions",
      "outputs": [
        {
          "internalType": "uint256",
          "name": "",
          "type": "uint256"
        }
      ],
      "stateMutability": "view",
      "type": "function",
      "constant": true
    },
    {
      "inputs": [
        {
          "internalType": "address",
          "name": "",
          "type": "address"
        }
      ],
      "name": "tokenActivated",
      "outputs": [
        {
          "internalType": "bool",
          "name": "",
          "type": "bool"
        }
      ],
      "stateMutability": "view",
      "type": "function",
      "constant": true
    },
    {
      "inputs": [
        {
          "internalType": "address",
          "name": "_daiAddress",
          "type": "address"
        }
      ],
      "name": "setDaiAddress",
      "outputs": [],
      "stateMutability": "nonpayable",
      "type": "function"
    },
    {
      "inputs": [
        {
          "internalType": "uint256",
          "name": "purchaseId",
          "type": "uint256"
        }
      ],
      "name": "excersizeOption",
      "outputs": [
        {
          "internalType": "bool",
          "name": "",
          "type": "bool"
        }
      ],
      "stateMutability": "nonpayable",
      "type": "function"
    },
    {
      "inputs": [
        {
          "internalType": "uint256[]",
          "name": "purchaseIds",
          "type": "uint256[]"
        }
      ],
      "name": "excersizeOptions",
      "outputs": [
        {
          "internalType": "bool",
          "name": "",
          "type": "bool"
        }
      ],
      "stateMutability": "nonpayable",
      "type": "function"
    },
    {
      "inputs": [
        {
          "internalType": "address",
          "name": "seller",
          "type": "address"
        },
        {
          "internalType": "address",
          "name": "token",
          "type": "address"
        },
        {
          "internalType": "bool",
          "name": "isCallOption",
          "type": "bool"
        },
        {
          "internalType": "uint256",
          "name": "strikePrice",
          "type": "uint256"
        },
        {
          "internalType": "uint256",
          "name": "premium",
          "type": "uint256"
        },
        {
          "internalType": "uint256",
          "name": "expiry",
          "type": "uint256"
        },
        {
          "internalType": "uint256",
          "name": "amountUnderlyingToken",
          "type": "uint256"
        }
      ],
      "name": "sellOption",
      "outputs": [
        {
          "internalType": "uint256",
          "name": "orderIdentifier",
          "type": "uint256"
        }
      ],
      "stateMutability": "nonpayable",
      "type": "function"
    },
    {
      "inputs": [
        {
          "internalType": "address",
          "name": "buyer",
          "type": "address"
        },
        {
          "internalType": "uint256",
          "name": "offerId",
          "type": "uint256"
        },
        {
          "internalType": "uint256",
          "name": "amountPurchasing",
          "type": "uint256"
        }
      ],
      "name": "buyOptionByID",
      "outputs": [
        {
          "internalType": "bool",
          "name": "",
          "type": "bool"
        }
      ],
      "stateMutability": "nonpayable",
      "type": "function"
    },
    {
      "inputs": [
        {
          "internalType": "address",
          "name": "buyer",
          "type": "address"
        },
        {
          "internalType": "address",
          "name": "seller",
          "type": "address"
        },
        {
          "internalType": "address",
          "name": "token",
          "type": "address"
        },
        {
          "internalType": "bool",
          "name": "isCallOption",
          "type": "bool"
        },
        {
          "internalType": "uint256",
          "name": "strikePrice",
          "type": "uint256"
        },
        {
          "internalType": "uint256",
          "name": "premium",
          "type": "uint256"
        },
        {
          "internalType": "uint256",
          "name": "expiry",
          "type": "uint256"
        },
        {
          "internalType": "uint256",
          "name": "amountPurchasing",
          "type": "uint256"
        }
      ],
      "name": "buyOptionByExactPremiumAndExpiry",
      "outputs": [
        {
          "internalType": "bool",
          "name": "",
          "type": "bool"
        }
      ],
      "stateMutability": "nonpayable",
      "type": "function"
    },
    {
      "inputs": [
        {
          "internalType": "uint256",
          "name": "offerId",
          "type": "uint256"
        }
      ],
      "name": "cancelOptionOffer",
      "outputs": [
        {
          "internalType": "bool",
          "name": "",
          "type": "bool"
        }
      ],
      "stateMutability": "nonpayable",
      "type": "function"
    },
    {
      "inputs": [
        {
          "internalType": "address",
          "name": "seller",
          "type": "address"
        },
        {
          "internalType": "address",
          "name": "token",
          "type": "address"
        },
        {
          "internalType": "bool",
          "name": "isCallOption",
          "type": "bool"
        },
        {
          "internalType": "uint256",
          "name": "strikePrice",
          "type": "uint256"
        },
        {
          "internalType": "uint256",
          "name": "premium",
          "type": "uint256"
        },
        {
          "internalType": "uint256",
          "name": "expiry",
          "type": "uint256"
        },
        {
          "internalType": "uint256",
          "name": "amountPurchasing",
          "type": "uint256"
        }
      ],
      "name": "isOptionBuyable",
      "outputs": [
        {
          "internalType": "bool",
          "name": "",
          "type": "bool"
        }
      ],
      "stateMutability": "view",
      "type": "function",
      "constant": true
    },
    {
      "inputs": [
        {
          "internalType": "address",
          "name": "recipient",
          "type": "address"
        },
        {
          "internalType": "uint256",
          "name": "amount",
          "type": "uint256"
        },
        {
          "internalType": "uint256",
          "name": "purchaseId",
          "type": "uint256"
        }
      ],
      "name": "transfer",
      "outputs": [],
      "stateMutability": "nonpayable",
      "type": "function"
    },
    {
      "inputs": [
        {
          "internalType": "address",
          "name": "designee",
          "type": "address"
        },
        {
          "internalType": "uint256",
          "name": "amount",
          "type": "uint256"
        },
        {
          "internalType": "uint256",
          "name": "purchaseId",
          "type": "uint256"
        }
      ],
      "name": "approve",
      "outputs": [
        {
          "internalType": "bool",
          "name": "",
          "type": "bool"
        }
      ],
      "stateMutability": "nonpayable",
      "type": "function"
    },
    {
      "inputs": [
        {
          "internalType": "address",
          "name": "owner",
          "type": "address"
        },
        {
          "internalType": "address",
          "name": "designee",
          "type": "address"
        },
        {
          "internalType": "uint256",
          "name": "purchaseId",
          "type": "uint256"
        }
      ],
      "name": "approval",
      "outputs": [
        {
          "internalType": "uint256",
          "name": "approvalAmount",
          "type": "uint256"
        }
      ],
      "stateMutability": "nonpayable",
      "type": "function"
    },
    {
      "inputs": [
        {
          "internalType": "address",
          "name": "from",
          "type": "address"
        },
        {
          "internalType": "address",
          "name": "recipient",
          "type": "address"
        },
        {
          "internalType": "uint256",
          "name": "amount",
          "type": "uint256"
        },
        {
          "internalType": "uint256",
          "name": "purchaseId",
          "type": "uint256"
        }
      ],
      "name": "transferFrom",
      "outputs": [],
      "stateMutability": "nonpayable",
      "type": "function"
    }
  ],
  "bytecode": "0x6080604052600260009054906101000a900473ffffffffffffffffffffffffffffffffffffffff16600360006101000a81548173ffffffffffffffffffffffffffffffffffffffff021916908373ffffffffffffffffffffffffffffffffffffffff1602179055506000600755600060085534801561007d57600080fd5b506001600081905550614269806100956000396000f3fe6080604052600436106101225760003560e01c806361fa86e6116100a0578063a669359011610064578063a669359014610480578063e289ae81146104a9578063e57fcc20146104e6578063f789271c14610523578063fe99049a1461056057610123565b806361fa86e6146103615780637d4c82ca1461038c57806384d62178146103c957806386468c4214610406578063871f179f1461044357610123565b80632eaee35e116100e75780632eaee35e146102545780632f3f7d7f1461027f578063426a8493146102bc5780635662ecc7146102f95780635c52a5f21461032457610123565b8062b4fa3e14610125578063095bcdb61461016a5780630afc785414610193578063188783d6146101d057806323cfbf1a1461021757610123565b5b005b34801561013157600080fd5b5061014c60048036038101906101479190613340565b610589565b60405161016199989796959493929190613c0a565b60405180910390f35b34801561017657600080fd5b50610191600480360381019061018c9190613287565b610631565b005b34801561019f57600080fd5b506101ba60048036038101906101b59190613340565b610642565b6040516101c79190613cf7565b60405180910390f35b3480156101dc57600080fd5b506101f760048036038101906101f29190613340565b610aba565b60405161020e9b9a99989796959493929190613ae1565b60405180910390f35b34801561022357600080fd5b5061023e60048036038101906102399190613340565b610b8e565b60405161024b9190613cf7565b60405180910390f35b34801561026057600080fd5b5061026961101b565b6040516102769190613a39565b60405180910390f35b34801561028b57600080fd5b506102a660048036038101906102a19190612f5c565b611041565b6040516102b39190613cf7565b60405180910390f35b3480156102c857600080fd5b506102e360048036038101906102de9190613287565b611061565b6040516102f09190613cf7565b60405180910390f35b34801561030557600080fd5b5061030e61124f565b60405161031b9190613f32565b60405180910390f35b34801561033057600080fd5b5061034b600480360381019061034691906131d5565b611255565b6040516103589190613f32565b60405180910390f35b34801561036d57600080fd5b506103766112dd565b6040516103839190613f32565b60405180910390f35b34801561039857600080fd5b506103b360048036038101906103ae9190612f85565b6112e3565b6040516103c09190613cf7565b60405180910390f35b3480156103d557600080fd5b506103f060048036038101906103eb9190613037565b61191e565b6040516103fd9190613f32565b60405180910390f35b34801561041257600080fd5b5061042d600480360381019061042891906132d6565b61196a565b60405161043a9190613cf7565b60405180910390f35b34801561044f57600080fd5b5061046a60048036038101906104659190613287565b6119e2565b6040516104779190613cf7565b60405180910390f35b34801561048c57600080fd5b506104a760048036038101906104a29190612f5c565b611f98565b005b3480156104b557600080fd5b506104d060048036038101906104cb91906130ae565b611fdc565b6040516104dd9190613f32565b60405180910390f35b3480156104f257600080fd5b5061050d60048036038101906105089190613137565b612035565b60405161051a9190613f32565b60405180910390f35b34801561052f57600080fd5b5061054a60048036038101906105459190613137565b6125eb565b6040516105579190613cf7565b60405180910390f35b34801561056c57600080fd5b5061058760048036038101906105829190613224565b6126d1565b005b600a6020528060005260406000206000915090508060000160009054906101000a900473ffffffffffffffffffffffffffffffffffffffff16908060010160009054906101000a900473ffffffffffffffffffffffffffffffffffffffff16908060010160149054906101000a900460ff16908060020154908060030154908060040154908060050154908060060154908060070160009054906101000a900460ff16905089565b61063d33848484612797565b505050565b60003373ffffffffffffffffffffffffffffffffffffffff16600a600084815260200190815260200160002060000160009054906101000a900473ffffffffffffffffffffffffffffffffffffffff1673ffffffffffffffffffffffffffffffffffffffff16146106e8576040517f08c379a00000000000000000000000000000000000000000000000000000000081526004016106df90613e72565b60405180910390fd5b6000600460003373ffffffffffffffffffffffffffffffffffffffff1673ffffffffffffffffffffffffffffffffffffffff1681526020019081526020016000206000600a600086815260200190815260200160002060010160009054906101000a900473ffffffffffffffffffffffffffffffffffffffff1673ffffffffffffffffffffffffffffffffffffffff1673ffffffffffffffffffffffffffffffffffffffff1681526020019081526020016000206000600a600086815260200190815260200160002060010160149054906101000a900460ff161515151581526020019081526020016000206000600a60008681526020019081526020016000206002015481526020019081526020016000206000600a60008681526020019081526020016000206003015481526020019081526020016000206000600a60008681526020019081526020016000206004015481526020019081526020016000205490506000600a600085815260200190815260200160002060010160009054906101000a900473ffffffffffffffffffffffffffffffffffffffff16905060008190508073ffffffffffffffffffffffffffffffffffffffff1663a9059cbb33856040518363ffffffff1660e01b81526004016108c7929190613cce565b602060405180830381600087803b1580156108e157600080fd5b505af11580156108f5573d6000803e3d6000fd5b505050506040513d601f19601f820116820180604052508101906109199190613317565b506000600460003373ffffffffffffffffffffffffffffffffffffffff1673ffffffffffffffffffffffffffffffffffffffff1681526020019081526020016000206000600a600089815260200190815260200160002060010160009054906101000a900473ffffffffffffffffffffffffffffffffffffffff1673ffffffffffffffffffffffffffffffffffffffff1673ffffffffffffffffffffffffffffffffffffffff1681526020019081526020016000206000600a600089815260200190815260200160002060010160149054906101000a900460ff161515151581526020019081526020016000206000600a60008981526020019081526020016000206002015481526020019081526020016000206000600a60008981526020019081526020016000206003015481526020019081526020016000206000600a6000898152602001908152602001600020600401548152602001908152602001600020819055506000600a600087815260200190815260200160002060070160006101000a81548160ff02191690831515021790555060019350505050919050565b60096020528060005260406000206000915090508060000160009054906101000a900473ffffffffffffffffffffffffffffffffffffffff16908060010160009054906101000a900473ffffffffffffffffffffffffffffffffffffffff16908060020160009054906101000a900473ffffffffffffffffffffffffffffffffffffffff16908060020160149054906101000a900460ff16908060030154908060040154908060050154908060060154908060070154908060080154908060090160009054906101000a900460ff1690508b565b60008015156009600084815260200190815260200160002060090160009054906101000a900460ff16151514610bf9576040517f08c379a0000000000000000000000000000000000000000000000000000000008152600401610bf090613d32565b60405180910390fd5b4260096000848152602001908152602001600020600501541015610c52576040517f08c379a0000000000000000000000000000000000000000000000000000000008152600401610c4990613e92565b60405180910390fd5b600060096000848152602001908152602001600020604051806101600160405290816000820160009054906101000a900473ffffffffffffffffffffffffffffffffffffffff1673ffffffffffffffffffffffffffffffffffffffff1673ffffffffffffffffffffffffffffffffffffffff1681526020016001820160009054906101000a900473ffffffffffffffffffffffffffffffffffffffff1673ffffffffffffffffffffffffffffffffffffffff1673ffffffffffffffffffffffffffffffffffffffff1681526020016002820160009054906101000a900473ffffffffffffffffffffffffffffffffffffffff1673ffffffffffffffffffffffffffffffffffffffff1673ffffffffffffffffffffffffffffffffffffffff1681526020016002820160149054906101000a900460ff161515151581526020016003820154815260200160048201548152602001600582015481526020016006820154815260200160078201548152602001600882015481526020016009820160009054906101000a900460ff161515151581525050905060008160400151905060008190506000610e1484608001518560e00151612e1b90919063ffffffff16565b9050600360009054906101000a900473ffffffffffffffffffffffffffffffffffffffff1673ffffffffffffffffffffffffffffffffffffffff166323b872dd85600001518660200151846040518463ffffffff1660e01b8152600401610e7d93929190613c97565b602060405180830381600087803b158015610e9757600080fd5b505af1158015610eab573d6000803e3d6000fd5b505050506040513d601f19601f82011682018060405250810190610ecf9190613317565b610f0e576040517f08c379a0000000000000000000000000000000000000000000000000000000008152600401610f0590613ef2565b60405180910390fd5b8173ffffffffffffffffffffffffffffffffffffffff1663a9059cbb85600001518660e001516040518363ffffffff1660e01b8152600401610f51929190613cce565b602060405180830381600087803b158015610f6b57600080fd5b505af1158015610f7f573d6000803e3d6000fd5b505050506040513d601f19601f82011682018060405250810190610fa39190613317565b5060016009600088815260200190815260200160002060090160006101000a81548160ff0219169083151502179055507f5fd7d80018e9d1078709eb14daa12c7d0956c931e763e0ed2889aae7452672eb86824260405161100693929190613f76565b60405180910390a16001945050505050919050565b600260009054906101000a900473ffffffffffffffffffffffffffffffffffffffff1681565b60016020528060005260406000206000915054906101000a900460ff1681565b60003373ffffffffffffffffffffffffffffffffffffffff166009600084815260200190815260200160002060000160009054906101000a900473ffffffffffffffffffffffffffffffffffffffff1673ffffffffffffffffffffffffffffffffffffffff1614611107576040517f08c379a00000000000000000000000000000000000000000000000000000000081526004016110fe90613e12565b60405180910390fd5b8260096000848152602001908152602001600020600601541015611160576040517f08c379a000000000000000000000000000000000000000000000000000000000815260040161115790613e32565b60405180910390fd5b82600660003373ffffffffffffffffffffffffffffffffffffffff1673ffffffffffffffffffffffffffffffffffffffff16815260200190815260200160002060008673ffffffffffffffffffffffffffffffffffffffff1673ffffffffffffffffffffffffffffffffffffffff168152602001908152602001600020819055508373ffffffffffffffffffffffffffffffffffffffff163373ffffffffffffffffffffffffffffffffffffffff167fb3fd5071835887567a0671151121894ddccc2842f1d10bedad13e0d17cace9a78585604051611240929190613f4d565b60405180910390a39392505050565b60075481565b6000600660008573ffffffffffffffffffffffffffffffffffffffff1673ffffffffffffffffffffffffffffffffffffffff16815260200190815260200160002060008473ffffffffffffffffffffffffffffffffffffffff1673ffffffffffffffffffffffffffffffffffffffff1681526020019081526020016000205490509392505050565b60085481565b6000806112f5898989898989896125eb565b905080611337576040517f08c379a000000000000000000000000000000000000000000000000000000000815260040161132e90613db2565b60405180910390fd5b80611377576040517f08c379a000000000000000000000000000000000000000000000000000000000815260040161136e90613ed2565b60405180910390fd5b6000600460008b73ffffffffffffffffffffffffffffffffffffffff1673ffffffffffffffffffffffffffffffffffffffff16815260200190815260200160002060008a73ffffffffffffffffffffffffffffffffffffffff1673ffffffffffffffffffffffffffffffffffffffff16815260200190815260200160002060008915151515815260200190815260200160002060008881526020019081526020016000206000878152602001908152602001600020600086815260200190815260200160002054905080841115611483576040517f08c379a000000000000000000000000000000000000000000000000000000000815260040161147a90613f12565b60405180910390fd5b60006114988588612e1b90919063ffffffff16565b9050600360009054906101000a900473ffffffffffffffffffffffffffffffffffffffff1673ffffffffffffffffffffffffffffffffffffffff166323b872dd338d846040518463ffffffff1660e01b81526004016114f993929190613c97565b602060405180830381600087803b15801561151357600080fd5b505af1158015611527573d6000803e3d6000fd5b505050506040513d601f19601f8201168201806040525081019061154b9190613317565b61158a576040517f08c379a000000000000000000000000000000000000000000000000000000000815260040161158190613eb2565b60405180910390fd5b61166185600460008e73ffffffffffffffffffffffffffffffffffffffff1673ffffffffffffffffffffffffffffffffffffffff16815260200190815260200160002060008d73ffffffffffffffffffffffffffffffffffffffff1673ffffffffffffffffffffffffffffffffffffffff16815260200190815260200160002060008c15151515815260200190815260200160002060008b815260200190815260200160002060008a8152602001908152602001600020600089815260200190815260200160002054612e3190919063ffffffff16565b600460008d73ffffffffffffffffffffffffffffffffffffffff1673ffffffffffffffffffffffffffffffffffffffff16815260200190815260200160002060008c73ffffffffffffffffffffffffffffffffffffffff1673ffffffffffffffffffffffffffffffffffffffff16815260200190815260200160002060008b15151515815260200190815260200160002060008a815260200190815260200160002060008981526020019081526020016000206000888152602001908152602001600020819055506117ef85600560008f73ffffffffffffffffffffffffffffffffffffffff1673ffffffffffffffffffffffffffffffffffffffff16815260200190815260200160002060008d73ffffffffffffffffffffffffffffffffffffffff1673ffffffffffffffffffffffffffffffffffffffff16815260200190815260200160002060008c15151515815260200190815260200160002060008b8152602001908152602001600020600089815260200190815260200160002054612e4790919063ffffffff16565b600560008e73ffffffffffffffffffffffffffffffffffffffff1673ffffffffffffffffffffffffffffffffffffffff16815260200190815260200160002060008c73ffffffffffffffffffffffffffffffffffffffff1673ffffffffffffffffffffffffffffffffffffffff16815260200190815260200160002060008b15151515815260200190815260200160002060008a81526020019081526020016000206000888152602001908152602001600020819055506118bc6001600854612e4790919063ffffffff16565b6008819055507fa424d29bf47b9249da68537a7ce50b17b8c471cff46be0dbfef01f474b2b75608c8c8c8c8c8c8c8c60085460405161190399989796959493929190613a54565b60405180910390a16001935050505098975050505050505050565b6005602052846000526040600020602052836000526040600020602052826000526040600020602052816000526040600020602052806000526040600020600094509450505050505481565b600080600090505b82518110156119d8576119c48382815181106119b7577f4e487b7100000000000000000000000000000000000000000000000000000000600052603260045260246000fd5b6020026020010151610b8e565b5080806119d090614147565b915050611972565b5060019050919050565b600060011515600a600085815260200190815260200160002060070160009054906101000a900460ff16151514611a4e576040517f08c379a0000000000000000000000000000000000000000000000000000000008152600401611a4590613d52565b60405180910390fd5b6000600a6000858152602001908152602001600020604051806101200160405290816000820160009054906101000a900473ffffffffffffffffffffffffffffffffffffffff1673ffffffffffffffffffffffffffffffffffffffff1673ffffffffffffffffffffffffffffffffffffffff1681526020016001820160009054906101000a900473ffffffffffffffffffffffffffffffffffffffff1673ffffffffffffffffffffffffffffffffffffffff1673ffffffffffffffffffffffffffffffffffffffff1681526020016001820160149054906101000a900460ff1615151515815260200160028201548152602001600382015481526020016004820154815260200160058201548152602001600682015481526020016007820160009054906101000a900460ff16151515158152505090506000611bae826000015183602001518460400151856060015186608001518760a001518a6125eb565b905080611bf0576040517f08c379a0000000000000000000000000000000000000000000000000000000008152600401611be790613db2565b60405180910390fd5b8160c00151841115611c37576040517f08c379a0000000000000000000000000000000000000000000000000000000008152600401611c2e90613df2565b60405180910390fd5b6000611c50858460800151612e1b90919063ffffffff16565b9050600360009054906101000a900473ffffffffffffffffffffffffffffffffffffffff1673ffffffffffffffffffffffffffffffffffffffff166323b872dd338560000151846040518463ffffffff1660e01b8152600401611cb593929190613c97565b602060405180830381600087803b158015611ccf57600080fd5b505af1158015611ce3573d6000803e3d6000fd5b505050506040513d601f19601f82011682018060405250810190611d079190613317565b611d46576040517f08c379a0000000000000000000000000000000000000000000000000000000008152600401611d3d90613eb2565b60405180910390fd5b611e358560046000866000015173ffffffffffffffffffffffffffffffffffffffff1673ffffffffffffffffffffffffffffffffffffffff1681526020019081526020016000206000866020015173ffffffffffffffffffffffffffffffffffffffff1673ffffffffffffffffffffffffffffffffffffffff1681526020019081526020016000206000866040015115151515815260200190815260200160002060008660600151815260200190815260200160002060008660800151815260200190815260200160002060008660a00151815260200190815260200160002054612e3190919063ffffffff16565b50611f0c85600560008a73ffffffffffffffffffffffffffffffffffffffff1673ffffffffffffffffffffffffffffffffffffffff1681526020019081526020016000206000866020015173ffffffffffffffffffffffffffffffffffffffff1673ffffffffffffffffffffffffffffffffffffffff1681526020019081526020016000206000866040015115151515815260200190815260200160002060008660600151815260200190815260200160002060008660a00151815260200190815260200160002054612e4790919063ffffffff16565b50611f236001600854612e4790919063ffffffff16565b6008819055507fa424d29bf47b9249da68537a7ce50b17b8c471cff46be0dbfef01f474b2b756087846000015185602001518660400151876060015188608001518960a001518c600854604051611f8299989796959493929190613a54565b60405180910390a1600193505050509392505050565b80600260006101000a81548173ffffffffffffffffffffffffffffffffffffffff021916908373ffffffffffffffffffffffffffffffffffffffff16021790555050565b600460205285600052604060002060205284600052604060002060205283600052604060002060205282600052604060002060205281600052604060002060205280600052604060002060009550955050505050505481565b60008087905060008173ffffffffffffffffffffffffffffffffffffffff166370a08231306040518263ffffffff1660e01b81526004016120769190613a39565b60206040518083038186803b15801561208e57600080fd5b505afa1580156120a2573d6000803e3d6000fd5b505050506040513d601f19601f820116820180604052508101906120c69190613369565b90508173ffffffffffffffffffffffffffffffffffffffff166323b872dd3330876040518463ffffffff1660e01b815260040161210593929190613c97565b602060405180830381600087803b15801561211f57600080fd5b505af1158015612133573d6000803e3d6000fd5b505050506040513d601f19601f820116820180604052508101906121579190613317565b5060008273ffffffffffffffffffffffffffffffffffffffff166370a08231306040518263ffffffff1660e01b81526004016121939190613a39565b60206040518083038186803b1580156121ab57600080fd5b505afa1580156121bf573d6000803e3d6000fd5b505050506040513d601f19601f820116820180604052508101906121e39190613369565b90506121f88583612e4790919063ffffffff16565b81101561223a576040517f08c379a000000000000000000000000000000000000000000000000000000000815260040161223190613d72565b60405180910390fd5b6000600460008d73ffffffffffffffffffffffffffffffffffffffff1673ffffffffffffffffffffffffffffffffffffffff16815260200190815260200160002060008c73ffffffffffffffffffffffffffffffffffffffff1673ffffffffffffffffffffffffffffffffffffffff16815260200190815260200160002060008b15151515815260200190815260200160002060008a8152602001908152602001600020600089815260200190815260200160002060008881526020019081526020016000205414156123d55784600460008d73ffffffffffffffffffffffffffffffffffffffff1673ffffffffffffffffffffffffffffffffffffffff16815260200190815260200160002060008c73ffffffffffffffffffffffffffffffffffffffff1673ffffffffffffffffffffffffffffffffffffffff16815260200190815260200160002060008b15151515815260200190815260200160002060008a81526020019081526020016000206000898152602001908152602001600020600088815260200190815260200160002081905550612575565b6124ac85600460008e73ffffffffffffffffffffffffffffffffffffffff1673ffffffffffffffffffffffffffffffffffffffff16815260200190815260200160002060008d73ffffffffffffffffffffffffffffffffffffffff1673ffffffffffffffffffffffffffffffffffffffff16815260200190815260200160002060008c15151515815260200190815260200160002060008b815260200190815260200160002060008a8152602001908152602001600020600089815260200190815260200160002054612e4790919063ffffffff16565b600460008d73ffffffffffffffffffffffffffffffffffffffff1673ffffffffffffffffffffffffffffffffffffffff16815260200190815260200160002060008c73ffffffffffffffffffffffffffffffffffffffff1673ffffffffffffffffffffffffffffffffffffffff16815260200190815260200160002060008b15151515815260200190815260200160002060008a815260200190815260200160002060008981526020019081526020016000206000888152602001908152602001600020819055505b61258b6001600754612e4790919063ffffffff16565b6007819055507fe717931682f00f8755881436a6596ebc03672fbdb9cc19fb8188f2a4b94a5c9a8b8b8b8b8b8b8b6007546040516125d0989796959493929190613b8c565b60405180910390a16007549350505050979650505050505050565b600081600460008a73ffffffffffffffffffffffffffffffffffffffff1673ffffffffffffffffffffffffffffffffffffffff16815260200190815260200160002060008973ffffffffffffffffffffffffffffffffffffffff1673ffffffffffffffffffffffffffffffffffffffff16815260200190815260200160002060008815151515815260200190815260200160002060008781526020019081526020016000206000868152602001908152602001600020600085815260200190815260200160002054106126c157600190506126c6565b600090505b979650505050505050565b60006126de858584611255565b905060008114612723576040517f08c379a000000000000000000000000000000000000000000000000000000000815260040161271a90613dd2565b60405180910390fd5b82811015612766576040517f08c379a000000000000000000000000000000000000000000000000000000000815260040161275d90613e52565b60405180910390fd5b61277285858585612797565b61278f846127898584612e3190919063ffffffff16565b84611061565b505050505050565b8373ffffffffffffffffffffffffffffffffffffffff166009600083815260200190815260200160002060000160009054906101000a900473ffffffffffffffffffffffffffffffffffffffff1673ffffffffffffffffffffffffffffffffffffffff161461283b576040517f08c379a000000000000000000000000000000000000000000000000000000000815260040161283290613e12565b60405180910390fd5b8160096000838152602001908152602001600020600601541015612894576040517f08c379a000000000000000000000000000000000000000000000000000000000815260040161288b90613d92565b60405180910390fd5b600060096000838152602001908152602001600020604051806101600160405290816000820160009054906101000a900473ffffffffffffffffffffffffffffffffffffffff1673ffffffffffffffffffffffffffffffffffffffff1673ffffffffffffffffffffffffffffffffffffffff1681526020016001820160009054906101000a900473ffffffffffffffffffffffffffffffffffffffff1673ffffffffffffffffffffffffffffffffffffffff1673ffffffffffffffffffffffffffffffffffffffff1681526020016002820160009054906101000a900473ffffffffffffffffffffffffffffffffffffffff1673ffffffffffffffffffffffffffffffffffffffff1673ffffffffffffffffffffffffffffffffffffffff1681526020016002820160149054906101000a900460ff161515151581526020016003820154815260200160048201548152602001600582015481526020016006820154815260200160078201548152602001600882015481526020016009820160009054906101000a900460ff161515151581525050905080610140015115612a71576040517f08c379a0000000000000000000000000000000000000000000000000000000008152600401612a6890613d12565b60405180910390fd5b612b4783600560008873ffffffffffffffffffffffffffffffffffffffff1673ffffffffffffffffffffffffffffffffffffffff1681526020019081526020016000206000846040015173ffffffffffffffffffffffffffffffffffffffff1673ffffffffffffffffffffffffffffffffffffffff1681526020019081526020016000206000846060015115151515815260200190815260200160002060008460800151815260200190815260200160002060008460c00151815260200190815260200160002054612e3190919063ffffffff16565b600560008773ffffffffffffffffffffffffffffffffffffffff1673ffffffffffffffffffffffffffffffffffffffff1681526020019081526020016000206000836040015173ffffffffffffffffffffffffffffffffffffffff1673ffffffffffffffffffffffffffffffffffffffff1681526020019081526020016000206000836060015115151515815260200190815260200160002060008360800151815260200190815260200160002060008360c00151815260200190815260200160002081905550612ce483600560008773ffffffffffffffffffffffffffffffffffffffff1673ffffffffffffffffffffffffffffffffffffffff1681526020019081526020016000206000846040015173ffffffffffffffffffffffffffffffffffffffff1673ffffffffffffffffffffffffffffffffffffffff1681526020019081526020016000206000846060015115151515815260200190815260200160002060008460800151815260200190815260200160002060008460c00151815260200190815260200160002054612e4790919063ffffffff16565b600560008673ffffffffffffffffffffffffffffffffffffffff1673ffffffffffffffffffffffffffffffffffffffff1681526020019081526020016000206000836040015173ffffffffffffffffffffffffffffffffffffffff1673ffffffffffffffffffffffffffffffffffffffff1681526020019081526020016000206000836060015115151515815260200190815260200160002060008360800151815260200190815260200160002060008360c001518152602001908152602001600020819055508373ffffffffffffffffffffffffffffffffffffffff168573ffffffffffffffffffffffffffffffffffffffff167fc817d75deaa278e988c41cf549ef38fe195ab65e0e64cd67ba47f0d185690d58858542604051612e0c93929190613f76565b60405180910390a35050505050565b60008183612e299190614071565b905092915050565b60008183612e3f91906140cb565b905092915050565b60008183612e55919061401b565b905092915050565b6000612e70612e6b84613fde565b613fad565b90508083825260208201905082856020860282011115612e8f57600080fd5b60005b85811015612ebf5781612ea58882612f32565b845260208401935060208301925050600181019050612e92565b5050509392505050565b600081359050612ed8816141ee565b92915050565b600082601f830112612eef57600080fd5b8135612eff848260208601612e5d565b91505092915050565b600081359050612f1781614205565b92915050565b600081519050612f2c81614205565b92915050565b600081359050612f418161421c565b92915050565b600081519050612f568161421c565b92915050565b600060208284031215612f6e57600080fd5b6000612f7c84828501612ec9565b91505092915050565b600080600080600080600080610100898b031215612fa257600080fd5b6000612fb08b828c01612ec9565b9850506020612fc18b828c01612ec9565b9750506040612fd28b828c01612ec9565b9650506060612fe38b828c01612f08565b9550506080612ff48b828c01612f32565b94505060a06130058b828c01612f32565b93505060c06130168b828c01612f32565b92505060e06130278b828c01612f32565b9150509295985092959890939650565b600080600080600060a0868803121561304f57600080fd5b600061305d88828901612ec9565b955050602061306e88828901612ec9565b945050604061307f88828901612f08565b935050606061309088828901612f32565b92505060806130a188828901612f32565b9150509295509295909350565b60008060008060008060c087890312156130c757600080fd5b60006130d589828a01612ec9565b96505060206130e689828a01612ec9565b95505060406130f789828a01612f08565b945050606061310889828a01612f32565b935050608061311989828a01612f32565b92505060a061312a89828a01612f32565b9150509295509295509295565b600080600080600080600060e0888a03121561315257600080fd5b60006131608a828b01612ec9565b97505060206131718a828b01612ec9565b96505060406131828a828b01612f08565b95505060606131938a828b01612f32565b94505060806131a48a828b01612f32565b93505060a06131b58a828b01612f32565b92505060c06131c68a828b01612f32565b91505092959891949750929550565b6000806000606084860312156131ea57600080fd5b60006131f886828701612ec9565b935050602061320986828701612ec9565b925050604061321a86828701612f32565b9150509250925092565b6000806000806080858703121561323a57600080fd5b600061324887828801612ec9565b945050602061325987828801612ec9565b935050604061326a87828801612f32565b925050606061327b87828801612f32565b91505092959194509250565b60008060006060848603121561329c57600080fd5b60006132aa86828701612ec9565b93505060206132bb86828701612f32565b92505060406132cc86828701612f32565b9150509250925092565b6000602082840312156132e857600080fd5b600082013567ffffffffffffffff81111561330257600080fd5b61330e84828501612ede565b91505092915050565b60006020828403121561332957600080fd5b600061333784828501612f1d565b91505092915050565b60006020828403121561335257600080fd5b600061336084828501612f32565b91505092915050565b60006020828403121561337b57600080fd5b600061338984828501612f47565b91505092915050565b61339b816140ff565b82525050565b6133aa81614111565b82525050565b60006133bd60238361400a565b91507f63616e6e6f74207472616e7366657220616e206578657263697a6564206f707460008301527f696f6e00000000000000000000000000000000000000000000000000000000006020830152604082019050919050565b600061342360278361400a565b91507f54686973206f7074696f6e2068617320616c7265616479206265656e2065786360008301527f657273697a6564000000000000000000000000000000000000000000000000006020830152604082019050919050565b6000613489601e8361400a565b91507f54686973206f7074696f6e206973206e6f206c6f6e6765722076616c696400006000830152602082019050919050565b60006134c960408361400a565b91507f436f756c64206e6f74207472616e736665722074686520616d6f756e7420667260008301527f6f6d206d73672e73656e646572207468617420776173207265717565737465646020830152604082019050919050565b600061352f601e8361400a565b91507f43616e6e6f74207472616e666572206d6f7265207468616e206f776e656400006000830152602082019050919050565b600061356f60478361400a565b91507f54686973206f7074696f6e206973206e6f742062757961626c652e20506c656160008301527f736520636865636b207468652073656c6c65722773206f6666657220696e666f60208301527f726d6174696f6e000000000000000000000000000000000000000000000000006040830152606082019050919050565b60006135fb600c8361400a565b91507f4e6f7420617070726f76656400000000000000000000000000000000000000006000830152602082019050919050565b600061363b602c8361400a565b91507f5468657265206973206e6f7420656e6f75676820696e76656e746f727920666f60008301527f722074686973206f7264657200000000000000000000000000000000000000006020830152604082019050919050565b60006136a1601e8361400a565b91507f5468652073656e646572206d757374206f776e20746865206f7074696f6e00006000830152602082019050919050565b60006136e1601e8361400a565b91507f43616e6e6f7420617070726f7665206d6f7265207468616e206f776e656400006000830152602082019050919050565b6000613721601c8361400a565b91507f4e6f7420617070726f76656420666f72207468697320616d6f756e74000000006000830152602082019050919050565b600061376160238361400a565b91507f546865206d73672e73656e6465722068617320746f206265207468652073656c60008301527f6c657200000000000000000000000000000000000000000000000000000000006020830152604082019050919050565b60006137c760378361400a565b91507f54686973206f7074696f6e20686173206e6f742072656163686564206974732060008301527f657863657273697a652074696d657374616d70207965740000000000000000006020830152604082019050919050565b600061382d604d8361400a565b91507f506c6561736520656e73757265207468617420796f752068617665206170707260008301527f6f766564207468697320636f6e747261637420746f2068616e646c6520796f7560208301527f722044414920286572726f7229000000000000000000000000000000000000006040830152606082019050919050565b60006138b960608361400a565b91507f536f7272793a207468657265206973206e6f206f6e652073656c6c696e67206f60008301527f7074696f6e732074686174206d65657420796f7572207370656369666963617460208301527f696f6e732e205065726861707320747279206275794f7074696f6e42794964736040830152606082019050919050565b600061394560528361400a565b91507f4469642074686520627579657220617070726f7665207468697320636f6e747260008301527f61637420746f2068616e646c6520444149206f72206861766520616e6f75676860208301527f2044414920746f20657863657273697a653f00000000000000000000000000006040830152606082019050919050565b60006139d1602d8361400a565b91507f205468657265206973206e6f7420656e6f75676820696e76656e746f7279206660008301527f6f722074686973206f72646572000000000000000000000000000000000000006020830152604082019050919050565b613a338161413d565b82525050565b6000602082019050613a4e6000830184613392565b92915050565b600061012082019050613a6a600083018c613392565b613a77602083018b613392565b613a84604083018a613392565b613a9160608301896133a1565b613a9e6080830188613a2a565b613aab60a0830187613a2a565b613ab860c0830186613a2a565b613ac560e0830185613a2a565b613ad3610100830184613a2a565b9a9950505050505050505050565b600061016082019050613af7600083018e613392565b613b04602083018d613392565b613b11604083018c613392565b613b1e606083018b6133a1565b613b2b608083018a613a2a565b613b3860a0830189613a2a565b613b4560c0830188613a2a565b613b5260e0830187613a2a565b613b60610100830186613a2a565b613b6e610120830185613a2a565b613b7c6101408301846133a1565b9c9b505050505050505050505050565b600061010082019050613ba2600083018b613392565b613baf602083018a613392565b613bbc60408301896133a1565b613bc96060830188613a2a565b613bd66080830187613a2a565b613be360a0830186613a2a565b613bf060c0830185613a2a565b613bfd60e0830184613a2a565b9998505050505050505050565b600061012082019050613c20600083018c613392565b613c2d602083018b613392565b613c3a604083018a6133a1565b613c476060830189613a2a565b613c546080830188613a2a565b613c6160a0830187613a2a565b613c6e60c0830186613a2a565b613c7b60e0830185613a2a565b613c896101008301846133a1565b9a9950505050505050505050565b6000606082019050613cac6000830186613392565b613cb96020830185613392565b613cc66040830184613a2a565b949350505050565b6000604082019050613ce36000830185613392565b613cf06020830184613a2a565b9392505050565b6000602082019050613d0c60008301846133a1565b92915050565b60006020820190508181036000830152613d2b816133b0565b9050919050565b60006020820190508181036000830152613d4b81613416565b9050919050565b60006020820190508181036000830152613d6b8161347c565b9050919050565b60006020820190508181036000830152613d8b816134bc565b9050919050565b60006020820190508181036000830152613dab81613522565b9050919050565b60006020820190508181036000830152613dcb81613562565b9050919050565b60006020820190508181036000830152613deb816135ee565b9050919050565b60006020820190508181036000830152613e0b8161362e565b9050919050565b60006020820190508181036000830152613e2b81613694565b9050919050565b60006020820190508181036000830152613e4b816136d4565b9050919050565b60006020820190508181036000830152613e6b81613714565b9050919050565b60006020820190508181036000830152613e8b81613754565b9050919050565b60006020820190508181036000830152613eab816137ba565b9050919050565b60006020820190508181036000830152613ecb81613820565b9050919050565b60006020820190508181036000830152613eeb816138ac565b9050919050565b60006020820190508181036000830152613f0b81613938565b9050919050565b60006020820190508181036000830152613f2b816139c4565b9050919050565b6000602082019050613f476000830184613a2a565b92915050565b6000604082019050613f626000830185613a2a565b613f6f6020830184613a2a565b9392505050565b6000606082019050613f8b6000830186613a2a565b613f986020830185613a2a565b613fa56040830184613a2a565b949350505050565b6000604051905081810181811067ffffffffffffffff82111715613fd457613fd36141bf565b5b8060405250919050565b600067ffffffffffffffff821115613ff957613ff86141bf565b5b602082029050602081019050919050565b600082825260208201905092915050565b60006140268261413d565b91506140318361413d565b9250827fffffffffffffffffffffffffffffffffffffffffffffffffffffffffffffffff0382111561406657614065614190565b5b828201905092915050565b600061407c8261413d565b91506140878361413d565b9250817fffffffffffffffffffffffffffffffffffffffffffffffffffffffffffffffff04831182151516156140c0576140bf614190565b5b828202905092915050565b60006140d68261413d565b91506140e18361413d565b9250828210156140f4576140f3614190565b5b828203905092915050565b600061410a8261411d565b9050919050565b60008115159050919050565b600073ffffffffffffffffffffffffffffffffffffffff82169050919050565b6000819050919050565b60006141528261413d565b91507fffffffffffffffffffffffffffffffffffffffffffffffffffffffffffffffff82141561418557614184614190565b5b600182019050919050565b7f4e487b7100000000000000000000000000000000000000000000000000000000600052601160045260246000fd5b7f4e487b7100000000000000000000000000000000000000000000000000000000600052604160045260246000fd5b6141f7816140ff565b811461420257600080fd5b50565b61420e81614111565b811461421957600080fd5b50565b6142258161413d565b811461423057600080fd5b5056fea2646970667358221220d79c789787f607ffd12b4cbe17d0ed64f35dac8de576105803f6c686d9607d5464736f6c63430008000033",
  "immutableReferences": {},
  "source": "pragma solidity >=0.8.0 <0.9.0;\npragma experimental ABIEncoderV2;\n\n//Required libs\nimport \"@openzeppelin/contracts/token/ERC20/IERC20.sol\";\nimport \"@openzeppelin/contracts/security/ReentrancyGuard.sol\";\nimport \"@openzeppelin/contracts/token/ERC20/utils/SafeERC20.sol\";\nimport \"@openzeppelin/contracts/utils/math/SafeMath.sol\";\n\n//Options Market Contract\ncontract Core is  ReentrancyGuard {\n    using SafeMath for uint256;\n    fallback() external payable { }\n    mapping (address => bool) public tokenActivated;\n\n    //currently DAI is the stablecoin of choice and the address cannot be edited by anyone to prevent users unable to complete their option trade cycles under any circumstance. If the DAI address changes, a new contract should be used by users.\n // address public daiTokenAddress = 0x6B175474E89094C44Da98b954EedeAC495271d0F;\n    address public daiTokenAddress;\n    \n    IERC20 daiToken = IERC20(daiTokenAddress);\n\n    //mappings for sellers and buyers of options (database)\n    mapping(address=> mapping(address=> mapping(bool=> mapping(uint256=>mapping(uint256=> mapping(uint256=>uint256)))))) public orderbook;\n    mapping(address=> mapping(address=>mapping(bool=> mapping(uint256=>mapping(uint256=>uint256))))) public positions;\n    mapping(address => mapping(address => uint256)) private _allowances;\n\n    //Incrementing identifiers for orders. This number will be the last offer or purchase ID\n    uint256 public lastOrderId= 0;\n    uint256 public lastPurchaseId =0;\n\n    //All events based on major function executions (purchase, offers, exersizes and cancellations)\n    event OptionPurchase(address buyer, address seller, address token, bool isCallOption, uint256 strikePrice, uint256 premium, uint256 expiry, uint256 amountPurchasing, uint256 purchaseId);\n    event OptionOffer(address seller, address token, bool isCallOption, uint256 strikePrice, uint256 premium, uint256 expiry, uint256 amountSelling, uint256 orderId);\n    event OptionExcersize(uint256 optionId, uint256 excersizeCost, uint256 timestamp);\n    event Transfer(address indexed from, address indexed to, uint256 value, uint256 purchaseId,uint256 timestamp);\n    event Approval(address indexed owner, address indexed spender, uint256 value, uint256 purchaseId);\n\n   //Structures of offers and purchases\n    struct optionOffer {\n        address seller;\n        address token;\n        bool isCallOption;\n        uint256 strikePrice;\n        uint256 premium;\n        uint256 expiry;\n        uint256 amountUnderlyingToken;\n        uint256 offeredTimestamp;\n        bool isStillValid;\n    }\n    struct optionPurchase {\n        address buyer;\n        address seller;\n        address token;\n        bool isCallOption;\n        uint256 strikePrice;\n        uint256 premium;\n        uint256 expiry;\n        uint256 amountUnderlyingToken;\n        uint256 offerId;\n        uint256 purchasedTimestamp;\n        bool exercized;\n    }\n\n    //publicly available data for all purchases and sale offers\n    mapping (uint256 => optionPurchase) public optionPurchases;\n    mapping (uint256 => optionOffer) public optionOffers;\n\n    function setDaiAddress(address _daiAddress) public{\n        daiTokenAddress = _daiAddress;\n    }\n\n    //Allows anyone to attempt to excersize an option after its excersize date. This can be done by a bot of the service provider or the user themselves\n    function excersizeOption(uint256 purchaseId) public returns (bool){\n\n        require(optionPurchases[purchaseId].exercized== false, \"This option has already been excersized\");\n        require(optionPurchases[purchaseId].expiry >= block.timestamp, \"This option has not reached its excersize timestamp yet\");\n        optionPurchase memory opData = optionPurchases[purchaseId];\n        address underlyingAddress  = opData.token;\n        IERC20 underlyingToken = IERC20(underlyingAddress);\n        uint256 amountDAIToPay = opData.amountUnderlyingToken.mul(opData.strikePrice);\n        require(daiToken.transferFrom(opData.buyer, opData.seller, amountDAIToPay), \"Did the buyer approve this contract to handle DAI or have anough DAI to excersize?\");\n        underlyingToken.transfer(opData.buyer, opData.amountUnderlyingToken);\n        optionPurchases[purchaseId].exercized= true;\n        emit OptionExcersize(purchaseId, amountDAIToPay, block.timestamp);\n        return true;\n\n    }\n\n    //This allows for the excersizing of many options with a single transaction\n    function excersizeOptions(uint256[] memory purchaseIds) public returns (bool){\n        for(uint i = 0; i<purchaseIds.length; i++){\n            excersizeOption(purchaseIds[i]);\n        }\n        return true;\n    }\n\n    //This allows a user or smart contract to create a sell option order that anyone else can fill (completely or partially)\n    function sellOption(address seller, address token, bool isCallOption, uint256 strikePrice, uint256 premium, uint256 expiry, uint256 amountUnderlyingToken) public returns(uint256 orderIdentifier){\n        IERC20 underlyingToken = IERC20(token);\n        uint256 contractBalanceBeforeTransfer = underlyingToken.balanceOf(address(this));\n        underlyingToken.transferFrom(msg.sender, address(this), amountUnderlyingToken);\n        uint256 contractBalanceAfterTransfer = underlyingToken.balanceOf(address(this));\n        require(contractBalanceAfterTransfer >= (contractBalanceBeforeTransfer.add(amountUnderlyingToken)), \"Could not transfer the amount from msg.sender that was requested\");\n        if(orderbook[seller][token][isCallOption][strikePrice][premium][expiry] ==0){\n            orderbook[seller][token][isCallOption][strikePrice][premium][expiry] = amountUnderlyingToken;\n        }\n        else{\n            orderbook[seller][token][isCallOption][strikePrice][premium][expiry] = orderbook[seller][token][isCallOption][strikePrice][premium][expiry].add(amountUnderlyingToken);\n        }\n        lastOrderId = lastOrderId.add(1);\n        emit OptionOffer( seller, token, isCallOption, strikePrice, premium, expiry, amountUnderlyingToken, lastOrderId);\n        return lastOrderId;\n    }\n\n    //This allows a user to immediately purchase an option based on the Id of an offer\n    function buyOptionByID(address buyer,uint256 offerId, uint256 amountPurchasing) public returns (bool){\n  \t\trequire(optionOffers[offerId].isStillValid== true, \"This option is no longer valid\");\n  \t\toptionOffer memory opData = optionOffers[offerId];\n  \t\tbool optionIsBuyable = isOptionBuyable(opData.seller, opData.token, opData.isCallOption, opData.strikePrice, opData.premium, opData.expiry, amountPurchasing);\n  \t\trequire(optionIsBuyable, \"This option is not buyable. Please check the seller's offer information\");\n      require(amountPurchasing <= opData.amountUnderlyingToken, \"There is not enough inventory for this order\");\n      uint256 orderSize = opData.premium.mul(amountPurchasing);\n      require(daiToken.transferFrom(msg.sender, opData.seller, orderSize), \"Please ensure that you have approved this contract to handle your DAI (error)\");\n      orderbook[opData.seller][opData.token][opData.isCallOption][opData.strikePrice][opData.premium][opData.expiry].sub(amountPurchasing);\n      positions[buyer][opData.token][opData.isCallOption][opData.strikePrice][opData.expiry].add(amountPurchasing);\n      lastPurchaseId = lastPurchaseId.add(1);\n      emit OptionPurchase(buyer, opData.seller, opData.token, opData.isCallOption, opData.strikePrice, opData.premium, opData.expiry, amountPurchasing, lastPurchaseId);\n      return true;\n    }\n\n    //This allows a user to immediately purchase an option based on the seller and offer information\n    function buyOptionByExactPremiumAndExpiry(address buyer, address seller, address token, bool isCallOption, uint256 strikePrice, uint256 premium, uint256 expiry, uint256 amountPurchasing ) public returns (bool){\n        bool optionIsBuyable = isOptionBuyable(seller, token, isCallOption, strikePrice, premium, expiry, amountPurchasing);\n        require(optionIsBuyable, \"This option is not buyable. Please check the seller's offer information\");\n       require(optionIsBuyable, \"Sorry: there is no one selling options that meet your specifications. Perhaps try buyOptionByIds\");\n        uint256 amountSelling = orderbook[seller][token][isCallOption][strikePrice][premium][expiry];\n        require(amountPurchasing <= amountSelling,\" There is not enough inventory for this order\");\n        uint256 orderSize = premium.mul(amountPurchasing);\n        require(daiToken.transferFrom(msg.sender, seller, orderSize), \"Please ensure that you have approved this contract to handle your DAI (error)\");\n        orderbook[seller][token][isCallOption][strikePrice][premium][expiry]=orderbook[seller][token][isCallOption][strikePrice][premium][expiry].sub(amountPurchasing);\n        positions[buyer][token][isCallOption][strikePrice][expiry]=positions[buyer][token][isCallOption][strikePrice][expiry].add(amountPurchasing);\n        lastPurchaseId = lastPurchaseId.add(1);\n        emit OptionPurchase(buyer, seller, token, isCallOption, strikePrice, premium, expiry, amountPurchasing, lastPurchaseId);\n        return true;\n    }\n\n    //This allows a seller to cancel all or the remainder of an option offer and redeem their underlying. A seller cannot redeem the tokens that are needed by a user who already has purchased part of the offer\n    function cancelOptionOffer(uint256 offerId) public returns(bool){\n        //msg.sender is seller\n        require(optionOffers[offerId].seller == msg.sender, \"The msg.sender has to be the seller\");\n        uint256 amountUnderlyingToReturn = orderbook[msg.sender][optionOffers[offerId].token][optionOffers[offerId].isCallOption][optionOffers[offerId].strikePrice][optionOffers[offerId].premium][optionOffers[offerId].expiry];\n        address underlyingAddress  = optionOffers[offerId].token;\n        IERC20 underlyingToken = IERC20(underlyingAddress);\n        underlyingToken.transfer(msg.sender, amountUnderlyingToReturn);\n        orderbook[msg.sender][optionOffers[offerId].token][optionOffers[offerId].isCallOption][optionOffers[offerId].strikePrice][optionOffers[offerId].premium][optionOffers[offerId].expiry]= 0;\n        optionOffers[offerId].isStillValid = false;\n        return true;\n\n    }\n\n    //This allows a user to know if an option is purchasable based on the seller and offer information\n    function isOptionBuyable(address seller, address token, bool isCallOption, uint256 strikePrice, uint256 premium, uint256 expiry, uint256 amountPurchasing) public view returns (bool){\n        if(orderbook[seller][token][isCallOption][strikePrice][premium][expiry] >=amountPurchasing){\n            return true;\n        }\n        else{\n            return false;\n        }\n    }\n\n    function transfer (address recipient, uint256 amount, uint256 purchaseId) public{//Transfer the amount of options from the msg.sender to the recipient address\n        _transfer(msg.sender, recipient, amount,purchaseId);\n    }\n\n    function approve (address designee, uint256 amount , uint256 purchaseId ) public returns(bool){//allows the designee to spend an amount of options\n        require(optionPurchases[purchaseId].buyer == msg.sender,'The sender must own the option');\n        require(optionPurchases[purchaseId].amountUnderlyingToken>=amount,'Cannot approve more than owned');\n        _allowances[msg.sender][designee]= amount;\n        emit Approval(msg.sender, designee, amount, purchaseId);\n    }\n\n    function approval(address owner, address designee, uint256 purchaseId)public returns(uint256 approvalAmount){//return the amount of options the designee can spend\n        return _allowances[owner][designee];\n    }\n\n    function transferFrom(address from , address recipient, uint256 amount,uint256 purchaseId) public {//Transfer the amount of options to the recipient address\n        uint256 allownace = approval(from, recipient, purchaseId);\n        require(allownace == 0 ,'Not approved');\n        require(allownace>= amount,'Not approved for this amount');\n        _transfer(from,recipient, amount, purchaseId);\n        approve(recipient,allownace.sub(amount),purchaseId);\n    }\n    \n\n\n    function _transfer(address sender, address recipient, uint256 amount,uint256 purchaseId) internal {//inernal transfer function\n        require(optionPurchases[purchaseId].buyer == sender,'The sender must own the option');\n        require(optionPurchases[purchaseId].amountUnderlyingToken>=amount,'Cannot tranfer more than owned');\n        optionPurchase memory optData = optionPurchases[purchaseId];\n        require(!optData.exercized,'cannot transfer an exercized option');\n        positions[sender][optData.token][optData.isCallOption][optData.strikePrice][optData.expiry]=positions[sender][optData.token][optData.isCallOption][optData.strikePrice][optData.expiry].sub(amount);//adjust the position of the owner\n        positions[recipient][optData.token][optData.isCallOption][optData.strikePrice][optData.expiry]=positions[recipient][optData.token][optData.isCallOption][optData.strikePrice][optData.expiry].add(amount);//adjust the position of the reciever\n        emit Transfer(sender, recipient, amount, purchaseId, block.timestamp);\n    }\n\n    \n\n\n}\n",
  "sourcePath": "/home/jeremiah/Downloads/Work-projects/OptionsMarket/contracts/optionsmarket.sol",
  "compiler": {
    "name": "solc",
    "version": "0.8.0+commit.c7dfd78e.Emscripten.clang"
  },
  "schemaVersion": "3.4.1",
  "updatedAt": "2021-08-03T17:29:35.582Z",
  "networkType": "ethereum",
  "devdoc": {
    "kind": "dev",
    "methods": {},
    "version": 1
  },
  "userdoc": {
    "kind": "user",
    "methods": {},
    "version": 1
  }
}